{
  "contractName": "CertificateManager",
  "abi": [
    {
      "anonymous": false,
      "inputs": [
        {
          "indexed": false,
          "internalType": "string",
          "name": "certificateId",
          "type": "string"
        },
        {
          "indexed": false,
          "internalType": "string",
          "name": "studentId",
          "type": "string"
        },
        {
          "indexed": false,
          "internalType": "string",
          "name": "institutionId",
          "type": "string"
        }
      ],
      "name": "CertificateIssued",
      "type": "event"
    },
    {
      "anonymous": false,
      "inputs": [
        {
          "indexed": false,
          "internalType": "string",
          "name": "certificateId",
          "type": "string"
        },
        {
          "indexed": false,
          "internalType": "bool",
          "name": "isValid",
          "type": "bool"
        }
      ],
      "name": "CertificateVerified",
      "type": "event"
    },
    {
      "inputs": [
        {
          "internalType": "string",
          "name": "",
          "type": "string"
        }
      ],
      "name": "certificates",
      "outputs": [
        {
          "internalType": "string",
          "name": "certificateId",
          "type": "string"
        },
        {
          "internalType": "string",
          "name": "studentId",
          "type": "string"
        },
        {
          "internalType": "string",
          "name": "institutionId",
          "type": "string"
        },
        {
          "internalType": "string",
          "name": "certificateHash",
          "type": "string"
        },
        {
          "internalType": "uint256",
          "name": "issueDate",
          "type": "uint256"
        },
        {
          "internalType": "uint256",
          "name": "expiryDate",
          "type": "uint256"
        },
        {
          "internalType": "bool",
          "name": "isValid",
          "type": "bool"
        }
      ],
      "stateMutability": "view",
      "type": "function",
      "constant": true
    },
    {
      "inputs": [
        {
          "internalType": "string",
          "name": "",
          "type": "string"
        },
        {
          "internalType": "uint256",
          "name": "",
          "type": "uint256"
        }
      ],
      "name": "studentCertificates",
      "outputs": [
        {
          "internalType": "string",
          "name": "",
          "type": "string"
        }
      ],
      "stateMutability": "view",
      "type": "function",
      "constant": true
    },
    {
      "inputs": [
        {
          "internalType": "string",
          "name": "_certificateId",
          "type": "string"
        },
        {
          "internalType": "string",
          "name": "_studentId",
          "type": "string"
        },
        {
          "internalType": "string",
          "name": "_institutionId",
          "type": "string"
        },
        {
          "internalType": "string",
          "name": "_certificateHash",
          "type": "string"
        },
        {
          "internalType": "uint256",
          "name": "_issueDate",
          "type": "uint256"
        },
        {
          "internalType": "uint256",
          "name": "_expiryDate",
          "type": "uint256"
        }
      ],
      "name": "issueCertificate",
      "outputs": [],
      "stateMutability": "nonpayable",
      "type": "function"
    },
    {
      "inputs": [
        {
          "internalType": "string",
          "name": "_certificateId",
          "type": "string"
        },
        {
          "internalType": "string",
          "name": "_certificateHash",
          "type": "string"
        }
      ],
      "name": "verifyCertificate",
      "outputs": [
        {
          "internalType": "bool",
          "name": "",
          "type": "bool"
        }
      ],
      "stateMutability": "nonpayable",
      "type": "function"
    },
    {
      "inputs": [
        {
          "internalType": "string",
          "name": "_studentId",
          "type": "string"
        }
      ],
      "name": "getStudentCertificates",
      "outputs": [
        {
          "internalType": "string[]",
          "name": "",
          "type": "string[]"
        }
      ],
      "stateMutability": "view",
      "type": "function",
      "constant": true
    },
    {
      "inputs": [
        {
          "internalType": "string",
          "name": "_certificateId",
          "type": "string"
        }
      ],
      "name": "getCertificateDetails",
      "outputs": [
        {
          "internalType": "string",
          "name": "studentId",
          "type": "string"
        },
        {
          "internalType": "string",
          "name": "institutionId",
          "type": "string"
        },
        {
          "internalType": "uint256",
          "name": "issueDate",
          "type": "uint256"
        },
        {
          "internalType": "uint256",
          "name": "expiryDate",
          "type": "uint256"
        },
        {
          "internalType": "bool",
          "name": "isValid",
          "type": "bool"
        }
      ],
      "stateMutability": "view",
      "type": "function",
      "constant": true
    }
  ],
  "bytecode": "0x608060405234801561001057600080fd5b50611205806100206000396000f3fe608060405234801561001057600080fd5b50600436106100625760003560e01c80631e898d9c146100675780632751f71b1461007c578063852bdf79146100a55780638f2b91ea146100c5578063ade3de2c146100eb578063fa433b361461010b575b600080fd5b61007a610075366004610ced565b61012f565b005b61008f61008a366004610c8c565b6102f3565b60405161009c9190610f2d565b60405180910390f35b6100b86100b3366004610da7565b61043c565b60405161009c9190610f38565b6100d86100d3366004610c51565b610504565b60405161009c9796959493929190610fb9565b6100fe6100f9366004610c51565b61076e565b60405161009c9190610ecd565b61011e610119366004610c51565b610865565b60405161009c959493929190611028565b60008660405161013f9190610eb1565b9081526020016040518091039020600401546000146101795760405162461bcd60e51b81526004016101709061110b565b60405180910390fd5b6040518060e00160405280878152602001868152602001858152602001848152602001838152602001828152602001600115158152506000876040516101bf9190610eb1565b908152602001604051809103902060008201518160000190805190602001906101e9929190610b37565b5060208281015180516102029260018501920190610b37565b506040820151805161021e916002840191602090910190610b37565b506060820151805161023a916003840191602090910190610b37565b506080820151600482015560a0820151600582015560c0909101516006909101805460ff191691151591909117905560405160019061027a908790610eb1565b90815260405160209181900382019020805460018101825560009182529082902088516102af93919092019190890190610b37565b507fc9aed1c64acf67836d70d23befa83b398ae1cc3d4dfae56bfe219d38128dd2438686866040516102e393929190610f76565b60405180910390a1505050505050565b600080836040516103049190610eb1565b908152602001604051809103902060040154600014156103365760405162461bcd60e51b8152600401610170906110d4565b6000836040516103469190610eb1565b9081526040519081900360200190206006015460ff166103785760405162461bcd60e51b8152600401610170906110a4565b6000836040516103889190610eb1565b9081526020016040518091039020600501544211156103b95760405162461bcd60e51b81526004016101709061106d565b600082805190602001206000856040516103d39190610eb1565b90815260200160405180910390206003016040516103f19190610e16565b60405180910390201490507f1a48be0d899f93d12824892836eea7aee0260894c1847adb8b7f4c9f86aaee37848260405161042d929190610f52565b60405180910390a19392505050565b8151602081840181018051600182529282019185019190912091905280548290811061046757600080fd5b906000526020600020016000915091505080546104839061117e565b80601f01602080910402602001604051908101604052809291908181526020018280546104af9061117e565b80156104fc5780601f106104d1576101008083540402835291602001916104fc565b820191906000526020600020905b8154815290600101906020018083116104df57829003601f168201915b505050505081565b805160208183018101805160008252928201919093012091528054819061052a9061117e565b80601f01602080910402602001604051908101604052809291908181526020018280546105569061117e565b80156105a35780601f10610578576101008083540402835291602001916105a3565b820191906000526020600020905b81548152906001019060200180831161058657829003601f168201915b5050505050908060010180546105b89061117e565b80601f01602080910402602001604051908101604052809291908181526020018280546105e49061117e565b80156106315780601f1061060657610100808354040283529160200191610631565b820191906000526020600020905b81548152906001019060200180831161061457829003601f168201915b5050505050908060020180546106469061117e565b80601f01602080910402602001604051908101604052809291908181526020018280546106729061117e565b80156106bf5780601f10610694576101008083540402835291602001916106bf565b820191906000526020600020905b8154815290600101906020018083116106a257829003601f168201915b5050505050908060030180546106d49061117e565b80601f01602080910402602001604051908101604052809291908181526020018280546107009061117e565b801561074d5780601f106107225761010080835404028352916020019161074d565b820191906000526020600020905b81548152906001019060200180831161073057829003601f168201915b50505050600483015460058401546006909401549293909290915060ff1687565b60606001826040516107809190610eb1565b9081526020016040518091039020805480602002602001604051908101604052809291908181526020016000905b8282101561085a5783829060005260206000200180546107cd9061117e565b80601f01602080910402602001604051908101604052809291908181526020018280546107f99061117e565b80156108465780601f1061081b57610100808354040283529160200191610846565b820191906000526020600020905b81548152906001019060200180831161082957829003601f168201915b5050505050815260200190600101906107ae565b505050509050919050565b60608060008060008060008760405161087e9190610eb1565b90815260200160405180910390206040518060e00160405290816000820180546108a79061117e565b80601f01602080910402602001604051908101604052809291908181526020018280546108d39061117e565b80156109205780601f106108f557610100808354040283529160200191610920565b820191906000526020600020905b81548152906001019060200180831161090357829003601f168201915b505050505081526020016001820180546109399061117e565b80601f01602080910402602001604051908101604052809291908181526020018280546109659061117e565b80156109b25780601f10610987576101008083540402835291602001916109b2565b820191906000526020600020905b81548152906001019060200180831161099557829003601f168201915b505050505081526020016002820180546109cb9061117e565b80601f01602080910402602001604051908101604052809291908181526020018280546109f79061117e565b8015610a445780601f10610a1957610100808354040283529160200191610a44565b820191906000526020600020905b815481529060010190602001808311610a2757829003601f168201915b50505050508152602001600382018054610a5d9061117e565b80601f0160208091040260200160405190810160405280929190818152602001828054610a899061117e565b8015610ad65780601f10610aab57610100808354040283529160200191610ad6565b820191906000526020600020905b815481529060010190602001808311610ab957829003601f168201915b50505091835250506004820154602080830191909152600583015460408084019190915260069093015460ff16151560609092019190915282015190820151608083015160a084015160c090940151929b919a509850919650945092505050565b828054610b439061117e565b90600052602060002090601f016020900481019282610b655760008555610bab565b82601f10610b7e57805160ff1916838001178555610bab565b82800160010185558215610bab579182015b82811115610bab578251825591602001919060010190610b90565b50610bb7929150610bbb565b5090565b5b80821115610bb75760008155600101610bbc565b600082601f830112610be0578081fd5b813567ffffffffffffffff80821115610bfb57610bfb6111b9565b604051601f8301601f191681016020018281118282101715610c1f57610c1f6111b9565b604052828152848301602001861015610c36578384fd5b82602086016020830137918201602001929092529392505050565b600060208284031215610c62578081fd5b813567ffffffffffffffff811115610c78578182fd5b610c8484828501610bd0565b949350505050565b60008060408385031215610c9e578081fd5b823567ffffffffffffffff80821115610cb5578283fd5b610cc186838701610bd0565b93506020850135915080821115610cd6578283fd5b50610ce385828601610bd0565b9150509250929050565b60008060008060008060c08789031215610d05578182fd5b863567ffffffffffffffff80821115610d1c578384fd5b610d288a838b01610bd0565b97506020890135915080821115610d3d578384fd5b610d498a838b01610bd0565b96506040890135915080821115610d5e578384fd5b610d6a8a838b01610bd0565b95506060890135915080821115610d7f578384fd5b50610d8c89828a01610bd0565b9350506080870135915060a087013590509295509295509295565b60008060408385031215610db9578182fd5b823567ffffffffffffffff811115610dcf578283fd5b610ddb85828601610bd0565b95602094909401359450505050565b60008151808452610e0281602086016020860161114e565b601f01601f19169290920160200192915050565b8154600090819060028104600180831680610e3257607f831692505b6020808410821415610e5257634e487b7160e01b87526022600452602487fd5b818015610e665760018114610e7757610ea3565b60ff19861689528489019650610ea3565b610e808a611142565b885b86811015610e9b5781548b820152908501908301610e82565b505084890196505b509498975050505050505050565b60008251610ec381846020870161114e565b9190910192915050565b6000602080830181845280855180835260408601915060408482028701019250838701855b82811015610f2057603f19888603018452610f0e858351610dea565b94509285019290850190600101610ef2565b5092979650505050505050565b901515815260200190565b600060208252610f4b6020830184610dea565b9392505050565b600060408252610f656040830185610dea565b905082151560208301529392505050565b600060608252610f896060830186610dea565b8281036020840152610f9b8186610dea565b90508281036040840152610faf8185610dea565b9695505050505050565b600060e08252610fcc60e083018a610dea565b8281036020840152610fde818a610dea565b90508281036040840152610ff28189610dea565b905082810360608401526110068188610dea565b6080840196909652505060a0810192909252151560c090910152949350505050565b600060a0825261103b60a0830188610dea565b828103602084015261104d8188610dea565b604084019690965250506060810192909252151560809091015292915050565b60208082526017908201527f4365727469666963617465206861732065787069726564000000000000000000604082015260600190565b60208082526016908201527510d95c9d1a599a58d85d19481a5cc81a5b9d985b1a5960521b604082015260600190565b6020808252601a908201527f436572746966696361746520646f6573206e6f74206578697374000000000000604082015260600190565b6020808252601d908201527f436572746966696361746520494420616c726561647920657869737473000000604082015260600190565b60009081526020902090565b60005b83811015611169578181015183820152602001611151565b83811115611178576000848401525b50505050565b60028104600182168061119257607f821691505b602082108114156111b357634e487b7160e01b600052602260045260246000fd5b50919050565b634e487b7160e01b600052604160045260246000fdfea2646970667358221220277d42763220664961072f62822936b276fc055cddcfa8f1ab6769faea989de264736f6c63430008000033",
  "immutableReferences": {},
  "source": "// SPDX-License-Identifier: MIT\npragma solidity ^0.8.0;\n\ncontract CertificateManager {\n    struct Certificate {\n        string certificateId;\n        string studentId;\n        string institutionId;\n        string certificateHash;\n        uint256 issueDate;\n        uint256 expiryDate;\n        bool isValid;\n    }\n\n    mapping(string => Certificate) public certificates;\n    mapping(string => string[]) public studentCertificates;\n    event CertificateIssued(string certificateId, string studentId, string institutionId);\n    event CertificateVerified(string certificateId, bool isValid);\n\n    function issueCertificate(\n        string memory _certificateId,\n        string memory _studentId,\n        string memory _institutionId,\n        string memory _certificateHash,\n        uint256 _issueDate,\n        uint256 _expiryDate\n    ) public {\n        require(certificates[_certificateId].issueDate == 0, \"Certificate ID already exists\");\n        \n        certificates[_certificateId] = Certificate({\n            certificateId: _certificateId,\n            studentId: _studentId,\n            institutionId: _institutionId,\n            certificateHash: _certificateHash,\n            issueDate: _issueDate,\n            expiryDate: _expiryDate,\n            isValid: true\n        });\n\n        studentCertificates[_studentId].push(_certificateId);\n        emit CertificateIssued(_certificateId, _studentId, _institutionId);\n    }\n\n    function verifyCertificate(string memory _certificateId, string memory _certificateHash) public returns (bool) {\n        require(certificates[_certificateId].issueDate != 0, \"Certificate does not exist\");\n        require(certificates[_certificateId].isValid, \"Certificate is invalid\");\n        require(block.timestamp <= certificates[_certificateId].expiryDate, \"Certificate has expired\");\n        \n        bool isValid = keccak256(bytes(certificates[_certificateId].certificateHash)) == keccak256(bytes(_certificateHash));\n        emit CertificateVerified(_certificateId, isValid);\n        return isValid;\n    }\n\n    function getStudentCertificates(string memory _studentId) public view returns (string[] memory) {\n        return studentCertificates[_studentId];\n    }\n\n    function getCertificateDetails(string memory _certificateId) public view returns (\n        string memory studentId,\n        string memory institutionId,\n        uint256 issueDate,\n        uint256 expiryDate,\n        bool isValid\n    ) {\n        Certificate memory cert = certificates[_certificateId];\n        return (cert.studentId, cert.institutionId, cert.issueDate, cert.expiryDate, cert.isValid);\n    }\n} ",
  "sourcePath": "/Users/nandakishorep/Desktop/Cursor Prjoect/certificate-contracts/contracts/CertificateManager.sol",
  "compiler": {
    "name": "solc",
    "version": "0.8.0+commit.c7dfd78e.Emscripten.clang"
  },
  "schemaVersion": "3.4.16",
  "updatedAt": "2025-04-26T19:23:22.092Z",
  "networkType": "ethereum",
  "devdoc": {
    "kind": "dev",
    "methods": {},
    "version": 1
  },
  "userdoc": {
    "kind": "user",
    "methods": {},
    "version": 1
  }
}