{
  "contractName": "EmployerRegistry",
  "abi": [
    {
      "inputs": [],
      "stateMutability": "nonpayable",
      "type": "constructor"
    },
    {
      "anonymous": false,
      "inputs": [
        {
          "indexed": false,
          "internalType": "string",
          "name": "employerId",
          "type": "string"
        }
      ],
      "name": "EmployerApproved",
      "type": "event"
    },
    {
      "anonymous": false,
      "inputs": [
        {
          "indexed": false,
          "internalType": "string",
          "name": "employerId",
          "type": "string"
        },
        {
          "indexed": false,
          "internalType": "string",
          "name": "name",
          "type": "string"
        }
      ],
      "name": "EmployerRegistered",
      "type": "event"
    },
    {
      "inputs": [],
      "name": "admin",
      "outputs": [
        {
          "internalType": "address",
          "name": "",
          "type": "address"
        }
      ],
      "stateMutability": "view",
      "type": "function",
      "constant": true
    },
    {
      "inputs": [
        {
          "internalType": "string",
          "name": "",
          "type": "string"
        }
      ],
      "name": "employers",
      "outputs": [
        {
          "internalType": "string",
          "name": "employerId",
          "type": "string"
        },
        {
          "internalType": "string",
          "name": "name",
          "type": "string"
        },
        {
          "internalType": "bytes32",
          "name": "passwordHash",
          "type": "bytes32"
        },
        {
          "internalType": "bool",
          "name": "isApproved",
          "type": "bool"
        }
      ],
      "stateMutability": "view",
      "type": "function",
      "constant": true
    },
    {
      "inputs": [
        {
          "internalType": "uint256",
          "name": "",
          "type": "uint256"
        }
      ],
      "name": "registeredEmployers",
      "outputs": [
        {
          "internalType": "string",
          "name": "",
          "type": "string"
        }
      ],
      "stateMutability": "view",
      "type": "function",
      "constant": true
    },
    {
      "inputs": [
        {
          "internalType": "string",
          "name": "_employerId",
          "type": "string"
        },
        {
          "internalType": "string",
          "name": "_name",
          "type": "string"
        },
        {
          "internalType": "bytes32",
          "name": "_passwordHash",
          "type": "bytes32"
        }
      ],
      "name": "registerEmployer",
      "outputs": [],
      "stateMutability": "nonpayable",
      "type": "function"
    },
    {
      "inputs": [
        {
          "internalType": "string",
          "name": "_employerId",
          "type": "string"
        }
      ],
      "name": "approveEmployer",
      "outputs": [],
      "stateMutability": "nonpayable",
      "type": "function"
    },
    {
      "inputs": [
        {
          "internalType": "string",
          "name": "_employerId",
          "type": "string"
        },
        {
          "internalType": "bytes32",
          "name": "_passwordHash",
          "type": "bytes32"
        }
      ],
      "name": "loginEmployer",
      "outputs": [
        {
          "internalType": "bool",
          "name": "",
          "type": "bool"
        }
      ],
      "stateMutability": "view",
      "type": "function",
      "constant": true
    },
    {
      "inputs": [],
      "name": "getRegisteredEmployers",
      "outputs": [
        {
          "internalType": "string[]",
          "name": "",
          "type": "string[]"
        }
      ],
      "stateMutability": "view",
      "type": "function",
      "constant": true
    },
    {
      "inputs": [
        {
          "internalType": "string",
          "name": "_employerId",
          "type": "string"
        }
      ],
      "name": "getEmployerDetails",
      "outputs": [
        {
          "internalType": "string",
          "name": "name",
          "type": "string"
        },
        {
          "internalType": "bool",
          "name": "isApproved",
          "type": "bool"
        }
      ],
      "stateMutability": "view",
      "type": "function",
      "constant": true
    }
  ],
  "bytecode": "0x608060405234801561001057600080fd5b50600280546001600160a01b03191633179055610e42806100326000396000f3fe608060405234801561001057600080fd5b50600436106100885760003560e01c8063777414d51161005b578063777414d51461011a57806394fbdb1f1461012f578063eac8b9d414610144578063f851a4401461015757610088565b806305e3a9491461008d5780630fb2792d146100b6578063304677a2146100d957806337b7c859146100f9575b600080fd5b6100a061009b366004610ae4565b61016c565b6040516100ad9190610bc3565b60405180910390f35b6100c96100c43660046109fc565b610218565b6040516100ad9493929190610c2f565b6100ec6100e7366004610a37565b61035f565b6040516100ad9190610bb8565b61010c6101073660046109fc565b61041c565b6040516100ad929190610bdd565b61012d6101283660046109fc565b610544565b005b610137610663565b6040516100ad9190610b58565b61012d610152366004610a7a565b61073c565b61015f6108d3565b6040516100ad9190610b44565b6001818154811061017c57600080fd5b90600052602060002001600091509050805461019790610dbb565b80601f01602080910402602001604051908101604052809291908181526020018280546101c390610dbb565b80156102105780601f106101e557610100808354040283529160200191610210565b820191906000526020600020905b8154815290600101906020018083116101f357829003601f168201915b505050505081565b805160208183018101805160008252928201919093012091528054819061023e90610dbb565b80601f016020809104026020016040519081016040528092919081815260200182805461026a90610dbb565b80156102b75780601f1061028c576101008083540402835291602001916102b7565b820191906000526020600020905b81548152906001019060200180831161029a57829003601f168201915b5050505050908060010180546102cc90610dbb565b80601f01602080910402602001604051908101604052809291908181526020018280546102f890610dbb565b80156103455780601f1061031a57610100808354040283529160200191610345565b820191906000526020600020905b81548152906001019060200180831161032857829003601f168201915b50505050600283015460039093015491929160ff16905084565b60008060001b6000846040516103759190610b28565b90815260200160405180910390206002015414156103ae5760405162461bcd60e51b81526004016103a590610d54565b60405180910390fd5b6000836040516103be9190610b28565b9081526040519081900360200190206003015460ff166103f05760405162461bcd60e51b81526004016103a590610cdb565b816000846040516104019190610b28565b90815260200160405180910390206002015414905092915050565b606060008060001b6000846040516104349190610b28565b90815260200160405180910390206002015414156104645760405162461bcd60e51b81526004016103a590610d54565b6000836040516104749190610b28565b90815260200160405180910390206001016000846040516104959190610b28565b90815260405190819003602001902060030154815460ff9091169082906104bb90610dbb565b80601f01602080910402602001604051908101604052809291908181526020018280546104e790610dbb565b80156105345780601f1061050957610100808354040283529160200191610534565b820191906000526020600020905b81548152906001019060200180831161051757829003601f168201915b5050505050915091509150915091565b6002546001600160a01b0316331461056e5760405162461bcd60e51b81526004016103a590610d12565b6000801b6000826040516105829190610b28565b90815260200160405180910390206002015414156105b25760405162461bcd60e51b81526004016103a590610d54565b6000816040516105c29190610b28565b9081526040519081900360200190206003015460ff16156105f55760405162461bcd60e51b81526004016103a590610c6d565b60016000826040516106079190610b28565b908152604051908190036020018120600301805492151560ff19909316929092179091557f33a451b37637d3043decfb9bc3037190eeab85301bda3cddff2f4af11454f12890610658908390610bc3565b60405180910390a150565b60606001805480602002602001604051908101604052809291908181526020016000905b828210156107335783829060005260206000200180546106a690610dbb565b80601f01602080910402602001604051908101604052809291908181526020018280546106d290610dbb565b801561071f5780601f106106f45761010080835404028352916020019161071f565b820191906000526020600020905b81548152906001019060200180831161070257829003601f168201915b505050505081526020019060010190610687565b50505050905090565b6000801b6000846040516107509190610b28565b9081526020016040518091039020600201541461077f5760405162461bcd60e51b81526004016103a590610ca4565b6040518060800160405280848152602001838152602001828152602001600115158152506000846040516107b39190610b28565b908152602001604051809103902060008201518160000190805190602001906107dd9291906108e2565b5060208281015180516107f692600185019201906108e2565b50604082015160028201556060909101516003909101805460ff1916911515919091179055600180548082018255600091909152835161085d917fb10e2d527612073b26eecdfd717e6a320cf44b4afac2b0732d9fcbe2b7fa0cf6019060208601906108e2565b507f8e16c8f96f20f8678f289602bf9027947668f4473960f2c5fe8ee29ceeda8a31838360405161088f929190610c01565b60405180910390a17f33a451b37637d3043decfb9bc3037190eeab85301bda3cddff2f4af11454f128836040516108c69190610bc3565b60405180910390a1505050565b6002546001600160a01b031681565b8280546108ee90610dbb565b90600052602060002090601f0160209004810192826109105760008555610956565b82601f1061092957805160ff1916838001178555610956565b82800160010185558215610956579182015b8281111561095657825182559160200191906001019061093b565b50610962929150610966565b5090565b5b808211156109625760008155600101610967565b600082601f83011261098b578081fd5b813567ffffffffffffffff808211156109a6576109a6610df6565b604051601f8301601f1916810160200182811182821017156109ca576109ca610df6565b6040528281528483016020018610156109e1578384fd5b82602086016020830137918201602001929092529392505050565b600060208284031215610a0d578081fd5b813567ffffffffffffffff811115610a23578182fd5b610a2f8482850161097b565b949350505050565b60008060408385031215610a49578081fd5b823567ffffffffffffffff811115610a5f578182fd5b610a6b8582860161097b565b95602094909401359450505050565b600080600060608486031215610a8e578081fd5b833567ffffffffffffffff80821115610aa5578283fd5b610ab18783880161097b565b94506020860135915080821115610ac6578283fd5b50610ad38682870161097b565b925050604084013590509250925092565b600060208284031215610af5578081fd5b5035919050565b60008151808452610b14816020860160208601610d8b565b601f01601f19169290920160200192915050565b60008251610b3a818460208701610d8b565b9190910192915050565b6001600160a01b0391909116815260200190565b6000602080830181845280855180835260408601915060408482028701019250838701855b82811015610bab57603f19888603018452610b99858351610afc565b94509285019290850190600101610b7d565b5092979650505050505050565b901515815260200190565b600060208252610bd66020830184610afc565b9392505050565b600060408252610bf06040830185610afc565b905082151560208301529392505050565b600060408252610c146040830185610afc565b8281036020840152610c268185610afc565b95945050505050565b600060808252610c426080830187610afc565b8281036020840152610c548187610afc565b6040840195909552505090151560609091015292915050565b6020808252601c908201527f456d706c6f79657220697320616c726561647920617070726f76656400000000604082015260600190565b6020808252601a908201527f456d706c6f79657220494420616c726561647920657869737473000000000000604082015260600190565b60208082526018908201527f456d706c6f796572206973206e6f7420617070726f7665640000000000000000604082015260600190565b60208082526022908201527f4f6e6c792061646d696e2063616e20706572666f726d2074686973206163746960408201526137b760f11b606082015260800190565b60208082526017908201527f456d706c6f79657220646f6573206e6f74206578697374000000000000000000604082015260600190565b60005b83811015610da6578181015183820152602001610d8e565b83811115610db5576000848401525b50505050565b600281046001821680610dcf57607f821691505b60208210811415610df057634e487b7160e01b600052602260045260246000fd5b50919050565b634e487b7160e01b600052604160045260246000fdfea2646970667358221220422acbae8c02a35c4b7b5c6a25a0edaa1c8f2875de0d72fc496034ceda096c8a64736f6c63430008000033",
  "immutableReferences": {},
  "source": "// SPDX-License-Identifier: MIT\npragma solidity ^0.8.0;\n\ncontract EmployerRegistry {\n    struct Employer {\n        string employerId;\n        string name;\n        bytes32 passwordHash;\n        bool isApproved;\n    }\n\n    mapping(string => Employer) public employers;\n    string[] public registeredEmployers;\n    address public admin;\n\n    event EmployerRegistered(string employerId, string name);\n    event EmployerApproved(string employerId);\n\n    constructor() {\n        admin = msg.sender;\n    }\n\n    modifier onlyAdmin() {\n        require(msg.sender == admin, \"Only admin can perform this action\");\n        _;\n    }\n\n    function registerEmployer(string memory _employerId, string memory _name, bytes32 _passwordHash) public {\n        require(employers[_employerId].passwordHash == bytes32(0), \"Employer ID already exists\");\n        \n        employers[_employerId] = Employer({\n            employerId: _employerId,\n            name: _name,\n            passwordHash: _passwordHash,\n            isApproved: true  // Automatically approve employers\n        });\n\n        registeredEmployers.push(_employerId);\n        emit EmployerRegistered(_employerId, _name);\n        emit EmployerApproved(_employerId);\n    }\n\n    function approveEmployer(string memory _employerId) public onlyAdmin {\n        require(employers[_employerId].passwordHash != bytes32(0), \"Employer does not exist\");\n        require(!employers[_employerId].isApproved, \"Employer is already approved\");\n        \n        employers[_employerId].isApproved = true;\n        emit EmployerApproved(_employerId);\n    }\n\n    function loginEmployer(string memory _employerId, bytes32 _passwordHash) public view returns (bool) {\n        require(employers[_employerId].passwordHash != bytes32(0), \"Employer does not exist\");\n        require(employers[_employerId].isApproved, \"Employer is not approved\");\n        \n        return employers[_employerId].passwordHash == _passwordHash;\n    }\n\n    function getRegisteredEmployers() public view returns (string[] memory) {\n        return registeredEmployers;\n    }\n\n    function getEmployerDetails(string memory _employerId) public view returns (string memory name, bool isApproved) {\n        require(employers[_employerId].passwordHash != bytes32(0), \"Employer does not exist\");\n        return (employers[_employerId].name, employers[_employerId].isApproved);\n    }\n} ",
  "sourcePath": "/Users/nandakishorep/Desktop/Cursor Prjoect/certificate-contracts/contracts/EmployerRegistry.sol",
  "compiler": {
    "name": "solc",
    "version": "0.8.0+commit.c7dfd78e.Emscripten.clang"
  },
  "schemaVersion": "3.4.16",
  "updatedAt": "2025-04-26T19:23:22.195Z",
  "networkType": "ethereum",
  "devdoc": {
    "kind": "dev",
    "methods": {},
    "version": 1
  },
  "userdoc": {
    "kind": "user",
    "methods": {},
    "version": 1
  }
}