{
  "contractName": "InstitutionRegistry",
  "abi": [
    {
      "anonymous": false,
      "inputs": [
        {
          "indexed": false,
          "internalType": "string",
          "name": "institutionId",
          "type": "string"
        }
      ],
      "name": "InstitutionApproved",
      "type": "event"
    },
    {
      "anonymous": false,
      "inputs": [
        {
          "indexed": false,
          "internalType": "string",
          "name": "institutionId",
          "type": "string"
        }
      ],
      "name": "InstitutionLoggedIn",
      "type": "event"
    },
    {
      "anonymous": false,
      "inputs": [
        {
          "indexed": false,
          "internalType": "string",
          "name": "institutionId",
          "type": "string"
        }
      ],
      "name": "InstitutionRegistered",
      "type": "event"
    },
    {
      "inputs": [
        {
          "internalType": "string",
          "name": "",
          "type": "string"
        }
      ],
      "name": "institutions",
      "outputs": [
        {
          "internalType": "string",
          "name": "institutionId",
          "type": "string"
        },
        {
          "internalType": "string",
          "name": "name",
          "type": "string"
        },
        {
          "internalType": "string",
          "name": "passwordHash",
          "type": "string"
        },
        {
          "internalType": "bool",
          "name": "isRegistered",
          "type": "bool"
        },
        {
          "internalType": "bool",
          "name": "isApproved",
          "type": "bool"
        }
      ],
      "stateMutability": "view",
      "type": "function",
      "constant": true
    },
    {
      "inputs": [
        {
          "internalType": "uint256",
          "name": "",
          "type": "uint256"
        }
      ],
      "name": "registeredInstitutionIds",
      "outputs": [
        {
          "internalType": "string",
          "name": "",
          "type": "string"
        }
      ],
      "stateMutability": "view",
      "type": "function",
      "constant": true
    },
    {
      "inputs": [
        {
          "internalType": "string",
          "name": "_institutionId",
          "type": "string"
        },
        {
          "internalType": "string",
          "name": "_name",
          "type": "string"
        },
        {
          "internalType": "string",
          "name": "_passwordHash",
          "type": "string"
        }
      ],
      "name": "registerInstitution",
      "outputs": [],
      "stateMutability": "nonpayable",
      "type": "function"
    },
    {
      "inputs": [
        {
          "internalType": "string",
          "name": "_institutionId",
          "type": "string"
        },
        {
          "internalType": "string",
          "name": "_passwordHash",
          "type": "string"
        }
      ],
      "name": "loginInstitution",
      "outputs": [
        {
          "internalType": "bool",
          "name": "",
          "type": "bool"
        }
      ],
      "stateMutability": "nonpayable",
      "type": "function"
    },
    {
      "inputs": [
        {
          "internalType": "string",
          "name": "_institutionId",
          "type": "string"
        }
      ],
      "name": "isInstitutionRegistered",
      "outputs": [
        {
          "internalType": "bool",
          "name": "",
          "type": "bool"
        }
      ],
      "stateMutability": "view",
      "type": "function",
      "constant": true
    },
    {
      "inputs": [
        {
          "internalType": "string",
          "name": "_institutionId",
          "type": "string"
        }
      ],
      "name": "isInstitutionApproved",
      "outputs": [
        {
          "internalType": "bool",
          "name": "",
          "type": "bool"
        }
      ],
      "stateMutability": "view",
      "type": "function",
      "constant": true
    },
    {
      "inputs": [],
      "name": "getRegisteredInstitutions",
      "outputs": [
        {
          "internalType": "string[]",
          "name": "",
          "type": "string[]"
        }
      ],
      "stateMutability": "view",
      "type": "function",
      "constant": true
    },
    {
      "inputs": [
        {
          "internalType": "string",
          "name": "_institutionId",
          "type": "string"
        }
      ],
      "name": "getInstitutionDetails",
      "outputs": [
        {
          "internalType": "string",
          "name": "name",
          "type": "string"
        },
        {
          "internalType": "bool",
          "name": "isApproved",
          "type": "bool"
        }
      ],
      "stateMutability": "view",
      "type": "function",
      "constant": true
    }
  ],
  "bytecode": "0x608060405234801561001057600080fd5b50610e8a806100206000396000f3fe608060405234801561001057600080fd5b50600436106100885760003560e01c8063885ba59e1161005b578063885ba59e1461010a5780639002171e1461011f578063abf7d79614610132578063ea6509f81461014757610088565b806302f52a8b1461008d5780635621a195146100b65780637bccdcca146100c957806381e82496146100ea575b600080fd5b6100a061009b366004610a53565b61016b565b6040516100ad9190610c93565b60405180910390f35b6100a06100c4366004610a18565b610252565b6100dc6100d7366004610a18565b610280565b6040516100ad929190610cb8565b6100fd6100f8366004610b38565b6103aa565b6040516100ad9190610c9e565b610112610456565b6040516100ad9190610c33565b6100a061012d366004610a18565b61052f565b610145610140366004610ab4565b610563565b005b61015a610155366004610a18565b610727565b6040516100ad959493929190610cdc565b6000808360405161017c9190610c17565b9081526040519081900360200190206003015460ff166101b75760405162461bcd60e51b81526004016101ae90610d66565b60405180910390fd5b81805190602001206000846040516101cf9190610c17565b90815260200160405180910390206002016040516101ed9190610b7c565b6040518091039020146102125760405162461bcd60e51b81526004016101ae90610d9d565b7fbfd2b6873fb80ad3066a1d0cc9b7f4dea4eead853611fac4f54e4e7f6034da29836040516102419190610c9e565b60405180910390a150600192915050565b600080826040516102639190610c17565b9081526040519081900360200190206003015460ff169050919050565b6060600080836040516102939190610c17565b9081526040519081900360200190206003015460ff166102c55760405162461bcd60e51b81526004016101ae90610d66565b6000836040516102d59190610c17565b90815260200160405180910390206001016000846040516102f69190610c17565b908152602001604051809103902060030160019054906101000a900460ff1681805461032190610e03565b80601f016020809104026020016040519081016040528092919081815260200182805461034d90610e03565b801561039a5780601f1061036f5761010080835404028352916020019161039a565b820191906000526020600020905b81548152906001019060200180831161037d57829003601f168201915b5050505050915091509150915091565b600181815481106103ba57600080fd5b9060005260206000200160009150905080546103d590610e03565b80601f016020809104026020016040519081016040528092919081815260200182805461040190610e03565b801561044e5780601f106104235761010080835404028352916020019161044e565b820191906000526020600020905b81548152906001019060200180831161043157829003601f168201915b505050505081565b60606001805480602002602001604051908101604052809291908181526020016000905b8282101561052657838290600052602060002001805461049990610e03565b80601f01602080910402602001604051908101604052809291908181526020018280546104c590610e03565b80156105125780601f106104e757610100808354040283529160200191610512565b820191906000526020600020905b8154815290600101906020018083116104f557829003601f168201915b50505050508152602001906001019061047a565b50505050905090565b600080826040516105409190610c17565b9081526040519081900360200190206003015460ff610100909104169050919050565b6000836040516105739190610c17565b9081526040519081900360200190206003015460ff16156105a65760405162461bcd60e51b81526004016101ae90610d2f565b6040805160a08101825284815260208101849052808201839052600160608201819052608082015290516000906105de908690610c17565b908152602001604051809103902060008201518160000190805190602001906106089291906108fe565b50602082810151805161062192600185019201906108fe565b506040820151805161063d9160028401916020909101906108fe565b5060608201516003909101805460809093015115156101000261ff001992151560ff19909416939093179190911691909117905560018054808201825560009190915283516106b3917fb10e2d527612073b26eecdfd717e6a320cf44b4afac2b0732d9fcbe2b7fa0cf6019060208601906108fe565b507f51403b4a82fa19d4c5d2c68db6f122f5ac878202af0e97dd82e59769856e980a836040516106e39190610c9e565b60405180910390a17f9577044372f8e79698c01ebd2d181006ed0dcd0c304b6dcd247014b3b37f9ccb8360405161071a9190610c9e565b60405180910390a1505050565b805160208183018101805160008252928201919093012091528054819061074d90610e03565b80601f016020809104026020016040519081016040528092919081815260200182805461077990610e03565b80156107c65780601f1061079b576101008083540402835291602001916107c6565b820191906000526020600020905b8154815290600101906020018083116107a957829003601f168201915b5050505050908060010180546107db90610e03565b80601f016020809104026020016040519081016040528092919081815260200182805461080790610e03565b80156108545780601f1061082957610100808354040283529160200191610854565b820191906000526020600020905b81548152906001019060200180831161083757829003601f168201915b50505050509080600201805461086990610e03565b80601f016020809104026020016040519081016040528092919081815260200182805461089590610e03565b80156108e25780601f106108b7576101008083540402835291602001916108e2565b820191906000526020600020905b8154815290600101906020018083116108c557829003601f168201915b5050506003909301549192505060ff8082169161010090041685565b82805461090a90610e03565b90600052602060002090601f01602090048101928261092c5760008555610972565b82601f1061094557805160ff1916838001178555610972565b82800160010185558215610972579182015b82811115610972578251825591602001919060010190610957565b5061097e929150610982565b5090565b5b8082111561097e5760008155600101610983565b600082601f8301126109a7578081fd5b813567ffffffffffffffff808211156109c2576109c2610e3e565b604051601f8301601f1916810160200182811182821017156109e6576109e6610e3e565b6040528281528483016020018610156109fd578384fd5b82602086016020830137918201602001929092529392505050565b600060208284031215610a29578081fd5b813567ffffffffffffffff811115610a3f578182fd5b610a4b84828501610997565b949350505050565b60008060408385031215610a65578081fd5b823567ffffffffffffffff80821115610a7c578283fd5b610a8886838701610997565b93506020850135915080821115610a9d578283fd5b50610aaa85828601610997565b9150509250929050565b600080600060608486031215610ac8578081fd5b833567ffffffffffffffff80821115610adf578283fd5b610aeb87838801610997565b94506020860135915080821115610b00578283fd5b610b0c87838801610997565b93506040860135915080821115610b21578283fd5b50610b2e86828701610997565b9150509250925092565b600060208284031215610b49578081fd5b5035919050565b60008151808452610b68816020860160208601610dd3565b601f01601f19169290920160200192915050565b8154600090819060028104600180831680610b9857607f831692505b6020808410821415610bb857634e487b7160e01b87526022600452602487fd5b818015610bcc5760018114610bdd57610c09565b60ff19861689528489019650610c09565b610be68a610dc7565b885b86811015610c015781548b820152908501908301610be8565b505084890196505b509498975050505050505050565b60008251610c29818460208701610dd3565b9190910192915050565b6000602080830181845280855180835260408601915060408482028701019250838701855b82811015610c8657603f19888603018452610c74858351610b50565b94509285019290850190600101610c58565b5092979650505050505050565b901515815260200190565b600060208252610cb16020830184610b50565b9392505050565b600060408252610ccb6040830185610b50565b905082151560208301529392505050565b600060a08252610cef60a0830188610b50565b8281036020840152610d018188610b50565b90508281036040840152610d158187610b50565b941515606084015250509015156080909101529392505050565b6020808252601e908201527f496e737469747574696f6e20616c726561647920726567697374657265640000604082015260600190565b6020808252601a908201527f496e737469747574696f6e206e6f742072656769737465726564000000000000604082015260600190565b60208082526010908201526f125b9d985b1a59081c185cdcdddbdc9960821b604082015260600190565b60009081526020902090565b60005b83811015610dee578181015183820152602001610dd6565b83811115610dfd576000848401525b50505050565b600281046001821680610e1757607f821691505b60208210811415610e3857634e487b7160e01b600052602260045260246000fd5b50919050565b634e487b7160e01b600052604160045260246000fdfea2646970667358221220f0a41c02bdcd0f889bced9555431d6f7f5e69b210ecd57610aeaf1aa9522c15364736f6c63430008000033",
  "immutableReferences": {},
  "source": "// SPDX-License-Identifier: MIT\npragma solidity ^0.8.0;\n\ncontract InstitutionRegistry {\n    struct Institution {\n        string institutionId;\n        string name;\n        string passwordHash;\n        bool isRegistered;\n        bool isApproved;\n    }\n\n    mapping(string => Institution) public institutions;\n    string[] public registeredInstitutionIds;\n    \n    event InstitutionRegistered(string institutionId);\n    event InstitutionApproved(string institutionId);\n    event InstitutionLoggedIn(string institutionId);\n\n    function registerInstitution(\n        string memory _institutionId,\n        string memory _name,\n        string memory _passwordHash\n    ) public {\n        require(!institutions[_institutionId].isRegistered, \"Institution already registered\");\n        \n        institutions[_institutionId] = Institution({\n            institutionId: _institutionId,\n            name: _name,\n            passwordHash: _passwordHash,\n            isRegistered: true,\n            isApproved: true\n        });\n\n        registeredInstitutionIds.push(_institutionId);\n        emit InstitutionRegistered(_institutionId);\n        emit InstitutionApproved(_institutionId);\n    }\n\n    function loginInstitution(\n        string memory _institutionId,\n        string memory _passwordHash\n    ) public returns (bool) {\n        require(institutions[_institutionId].isRegistered, \"Institution not registered\");\n        require(\n            keccak256(bytes(institutions[_institutionId].passwordHash)) == keccak256(bytes(_passwordHash)),\n            \"Invalid password\"\n        );\n\n        emit InstitutionLoggedIn(_institutionId);\n        return true;\n    }\n\n    function isInstitutionRegistered(string memory _institutionId) public view returns (bool) {\n        return institutions[_institutionId].isRegistered;\n    }\n\n    function isInstitutionApproved(string memory _institutionId) public view returns (bool) {\n        return institutions[_institutionId].isApproved;\n    }\n\n    function getRegisteredInstitutions() public view returns (string[] memory) {\n        return registeredInstitutionIds;\n    }\n\n    function getInstitutionDetails(string memory _institutionId) public view returns (\n        string memory name,\n        bool isApproved\n    ) {\n        require(institutions[_institutionId].isRegistered, \"Institution not registered\");\n        return (\n            institutions[_institutionId].name,\n            institutions[_institutionId].isApproved\n        );\n    }\n} ",
  "sourcePath": "/Users/nandakishorep/Desktop/Cursor Prjoect/certificate-contracts/contracts/InstitutionRegistry.sol",
  "compiler": {
    "name": "solc",
    "version": "0.8.0+commit.c7dfd78e.Emscripten.clang"
  },
  "schemaVersion": "3.4.16",
  "updatedAt": "2025-04-26T19:23:22.085Z",
  "networkType": "ethereum",
  "devdoc": {
    "kind": "dev",
    "methods": {},
    "version": 1
  },
  "userdoc": {
    "kind": "user",
    "methods": {},
    "version": 1
  }
}