{
  "contractName": "StudentRegistry",
  "abi": [
    {
      "anonymous": false,
      "inputs": [
        {
          "indexed": false,
          "internalType": "string",
          "name": "studentId",
          "type": "string"
        }
      ],
      "name": "StudentLoggedIn",
      "type": "event"
    },
    {
      "anonymous": false,
      "inputs": [
        {
          "indexed": false,
          "internalType": "string",
          "name": "studentId",
          "type": "string"
        }
      ],
      "name": "StudentRegistered",
      "type": "event"
    },
    {
      "inputs": [
        {
          "internalType": "string",
          "name": "",
          "type": "string"
        }
      ],
      "name": "students",
      "outputs": [
        {
          "internalType": "string",
          "name": "studentId",
          "type": "string"
        },
        {
          "internalType": "string",
          "name": "passwordHash",
          "type": "string"
        },
        {
          "internalType": "bool",
          "name": "isRegistered",
          "type": "bool"
        }
      ],
      "stateMutability": "view",
      "type": "function",
      "constant": true
    },
    {
      "inputs": [
        {
          "internalType": "string",
          "name": "_studentId",
          "type": "string"
        },
        {
          "internalType": "string",
          "name": "_passwordHash",
          "type": "string"
        }
      ],
      "name": "registerStudent",
      "outputs": [],
      "stateMutability": "nonpayable",
      "type": "function"
    },
    {
      "inputs": [
        {
          "internalType": "string",
          "name": "_studentId",
          "type": "string"
        },
        {
          "internalType": "string",
          "name": "_passwordHash",
          "type": "string"
        }
      ],
      "name": "loginStudent",
      "outputs": [
        {
          "internalType": "bool",
          "name": "",
          "type": "bool"
        }
      ],
      "stateMutability": "nonpayable",
      "type": "function"
    },
    {
      "inputs": [
        {
          "internalType": "string",
          "name": "_studentId",
          "type": "string"
        }
      ],
      "name": "isStudentRegistered",
      "outputs": [
        {
          "internalType": "bool",
          "name": "",
          "type": "bool"
        }
      ],
      "stateMutability": "view",
      "type": "function",
      "constant": true
    }
  ],
  "bytecode": "0x608060405234801561001057600080fd5b50610869806100206000396000f3fe608060405234801561001057600080fd5b506004361061004c5760003560e01c80630a1b776c14610051578063890cfd3d14610066578063bd5ba4621461008f578063c7ef6bfb146100a2575b600080fd5b61006461005f366004610574565b6100c4565b005b610079610074366004610574565b6101d3565b60405161008691906106b8565b60405180910390f35b61007961009d366004610539565b6102b1565b6100b56100b0366004610539565b6102df565b604051610086939291906106dd565b6000826040516100d4919061069c565b9081526040519081900360200190206002015460ff16156101105760405162461bcd60e51b815260040161010790610745565b60405180910390fd5b6040805160608101825283815260208101839052600181830152905160009061013a90859061069c565b9081526020016040518091039020600082015181600001908051906020019061016492919061041f565b50602082810151805161017d926001850192019061041f565b50604091820151600291909101805460ff1916911515919091179055517fc3a6f43a7cc3fde4e2804af17db6de647d06bb0ad7c2e04192613b6517120d28906101c79084906106c3565b60405180910390a15050565b600080836040516101e4919061069c565b9081526040519081900360200190206002015460ff166102165760405162461bcd60e51b815260040161010790610715565b818051906020012060008460405161022e919061069c565b908152602001604051809103902060010160405161024c9190610601565b6040518091039020146102715760405162461bcd60e51b81526004016101079061077c565b7fa398e093c60e0ef1b744bbd8d297bd1ab0875ce55a7a05d4a3faf74981c27960836040516102a091906106c3565b60405180910390a150600192915050565b600080826040516102c2919061069c565b9081526040519081900360200190206002015460ff169050919050565b8051602081830181018051600082529282019190930120915280548190610305906107e2565b80601f0160208091040260200160405190810160405280929190818152602001828054610331906107e2565b801561037e5780601f106103535761010080835404028352916020019161037e565b820191906000526020600020905b81548152906001019060200180831161036157829003601f168201915b505050505090806001018054610393906107e2565b80601f01602080910402602001604051908101604052809291908181526020018280546103bf906107e2565b801561040c5780601f106103e15761010080835404028352916020019161040c565b820191906000526020600020905b8154815290600101906020018083116103ef57829003601f168201915b5050506002909301549192505060ff1683565b82805461042b906107e2565b90600052602060002090601f01602090048101928261044d5760008555610493565b82601f1061046657805160ff1916838001178555610493565b82800160010185558215610493579182015b82811115610493578251825591602001919060010190610478565b5061049f9291506104a3565b5090565b5b8082111561049f57600081556001016104a4565b600082601f8301126104c8578081fd5b813567ffffffffffffffff808211156104e3576104e361081d565b604051601f8301601f1916810160200182811182821017156105075761050761081d565b60405282815284830160200186101561051e578384fd5b82602086016020830137918201602001929092529392505050565b60006020828403121561054a578081fd5b813567ffffffffffffffff811115610560578182fd5b61056c848285016104b8565b949350505050565b60008060408385031215610586578081fd5b823567ffffffffffffffff8082111561059d578283fd5b6105a9868387016104b8565b935060208501359150808211156105be578283fd5b506105cb858286016104b8565b9150509250929050565b600081518084526105ed8160208601602086016107b2565b601f01601f19169290920160200192915050565b815460009081906002810460018083168061061d57607f831692505b602080841082141561063d57634e487b7160e01b87526022600452602487fd5b81801561065157600181146106625761068e565b60ff1986168952848901965061068e565b61066b8a6107a6565b885b868110156106865781548b82015290850190830161066d565b505084890196505b509498975050505050505050565b600082516106ae8184602087016107b2565b9190910192915050565b901515815260200190565b6000602082526106d660208301846105d5565b9392505050565b6000606082526106f060608301866105d5565b828103602084015261070281866105d5565b9150508215156040830152949350505050565b60208082526016908201527514dd1d59195b9d081b9bdd081c9959da5cdd195c995960521b604082015260600190565b6020808252601a908201527f53747564656e7420616c72656164792072656769737465726564000000000000604082015260600190565b60208082526010908201526f125b9d985b1a59081c185cdcdddbdc9960821b604082015260600190565b60009081526020902090565b60005b838110156107cd5781810151838201526020016107b5565b838111156107dc576000848401525b50505050565b6002810460018216806107f657607f821691505b6020821081141561081757634e487b7160e01b600052602260045260246000fd5b50919050565b634e487b7160e01b600052604160045260246000fdfea2646970667358221220f9566e5666d9c009f39fef68371da4f252b5aa691c0a2fdb9603c401f2a2ee6d64736f6c63430008000033",
  "immutableReferences": {},
  "source": "// SPDX-License-Identifier: MIT\npragma solidity ^0.8.0;\n\ncontract StudentRegistry {\n    struct Student {\n        string studentId;\n        string passwordHash;\n        bool isRegistered;\n    }\n\n    mapping(string => Student) public students;\n    event StudentRegistered(string studentId);\n    event StudentLoggedIn(string studentId);\n\n    function registerStudent(string memory _studentId, string memory _passwordHash) public {\n        require(!students[_studentId].isRegistered, \"Student already registered\");\n        \n        students[_studentId] = Student({\n            studentId: _studentId,\n            passwordHash: _passwordHash,\n            isRegistered: true\n        });\n\n        emit StudentRegistered(_studentId);\n    }\n\n    function loginStudent(string memory _studentId, string memory _passwordHash) public returns (bool) {\n        require(students[_studentId].isRegistered, \"Student not registered\");\n        require(keccak256(bytes(students[_studentId].passwordHash)) == keccak256(bytes(_passwordHash)), \"Invalid password\");\n\n        emit StudentLoggedIn(_studentId);\n        return true;\n    }\n\n    function isStudentRegistered(string memory _studentId) public view returns (bool) {\n        return students[_studentId].isRegistered;\n    }\n} ",
  "sourcePath": "/Users/nandakishorep/Desktop/Cursor Prjoect/certificate-contracts/contracts/StudentRegistry.sol",
  "compiler": {
    "name": "solc",
    "version": "0.8.0+commit.c7dfd78e.Emscripten.clang"
  },
  "schemaVersion": "3.4.16",
  "updatedAt": "2025-04-26T19:23:22.079Z",
  "networkType": "ethereum",
  "devdoc": {
    "kind": "dev",
    "methods": {},
    "version": 1
  },
  "userdoc": {
    "kind": "user",
    "methods": {},
    "version": 1
  }
}