{
  "contractName": "ValidatorRegistry",
  "abi": [
    {
      "inputs": [],
      "stateMutability": "nonpayable",
      "type": "constructor"
    },
    {
      "anonymous": false,
      "inputs": [
        {
          "indexed": false,
          "internalType": "string",
          "name": "validatorId",
          "type": "string"
        }
      ],
      "name": "ValidatorLoggedIn",
      "type": "event"
    },
    {
      "anonymous": false,
      "inputs": [
        {
          "indexed": false,
          "internalType": "string",
          "name": "validatorId",
          "type": "string"
        }
      ],
      "name": "ValidatorRegistered",
      "type": "event"
    },
    {
      "inputs": [
        {
          "internalType": "string",
          "name": "",
          "type": "string"
        }
      ],
      "name": "validators",
      "outputs": [
        {
          "internalType": "string",
          "name": "validatorId",
          "type": "string"
        },
        {
          "internalType": "string",
          "name": "passwordHash",
          "type": "string"
        },
        {
          "internalType": "bool",
          "name": "isRegistered",
          "type": "bool"
        }
      ],
      "stateMutability": "view",
      "type": "function",
      "constant": true
    },
    {
      "inputs": [
        {
          "internalType": "string",
          "name": "_validatorId",
          "type": "string"
        },
        {
          "internalType": "string",
          "name": "_passwordHash",
          "type": "string"
        }
      ],
      "name": "registerValidator",
      "outputs": [],
      "stateMutability": "nonpayable",
      "type": "function"
    },
    {
      "inputs": [
        {
          "internalType": "string",
          "name": "_validatorId",
          "type": "string"
        },
        {
          "internalType": "string",
          "name": "_passwordHash",
          "type": "string"
        }
      ],
      "name": "loginValidator",
      "outputs": [
        {
          "internalType": "bool",
          "name": "",
          "type": "bool"
        }
      ],
      "stateMutability": "nonpayable",
      "type": "function"
    },
    {
      "inputs": [
        {
          "internalType": "string",
          "name": "_validatorId",
          "type": "string"
        }
      ],
      "name": "isValidatorRegistered",
      "outputs": [
        {
          "internalType": "bool",
          "name": "",
          "type": "bool"
        }
      ],
      "stateMutability": "view",
      "type": "function",
      "constant": true
    }
  ],
  "bytecode": "0x60806040523480156200001157600080fd5b506000604051806040016040528060018152602001603160f81b8152509050600060405180606001604052806040815260200162000b0a6040913990506040518060600160405280838152602001828152602001600115158152506000836040516200007e9190620001c7565b90815260200160405180910390206000820151816000019080519060200190620000aa92919062000121565b506020828101518051620000c5926001850192019062000121565b50604091820151600291909101805460ff1916911515919091179055517fb36f5b777790db07d29bcfc52bdb1992326e6a4527fc6cee83b2538549e2d35b9062000111908490620001e5565b60405180910390a150506200028a565b8280546200012f906200024d565b90600052602060002090601f0160209004810192826200015357600085556200019e565b82601f106200016e57805160ff19168380011785556200019e565b828001600101855582156200019e579182015b828111156200019e57825182559160200191906001019062000181565b50620001ac929150620001b0565b5090565b5b80821115620001ac5760008155600101620001b1565b60008251620001db8184602087016200021a565b9190910192915050565b6000602082528251806020840152620002068160408501602087016200021a565b601f01601f19169190910160400192915050565b60005b83811015620002375781810151838201526020016200021d565b8381111562000247576000848401525b50505050565b6002810460018216806200026257607f821691505b602082108114156200028457634e487b7160e01b600052602260045260246000fd5b50919050565b610870806200029a6000396000f3fe608060405234801561001057600080fd5b506004361061004c5760003560e01c80630a854729146100515780633d81380d1461007a578063781c50ac1461008f578063facbd0e3146100a2575b600080fd5b61006461005f366004610574565b6100c4565b60405161007191906106b8565b60405180910390f35b61008d610088366004610574565b6101ab565b005b61006461009d366004610539565b6102b1565b6100b56100b0366004610539565b6102df565b604051610071939291906106dd565b600080836040516100d5919061069c565b9081526040519081900360200190206002015460ff166101105760405162461bcd60e51b815260040161010790610776565b60405180910390fd5b8180519060200120600084604051610128919061069c565b90815260200160405180910390206001016040516101469190610601565b60405180910390201461016b5760405162461bcd60e51b81526004016101079061074c565b7f4e315d7b13352f4a45eabd1df7e0878079c7e9d2a84dc7204e0bc8d9a5906be18360405161019a91906106c3565b60405180910390a150600192915050565b6000826040516101bb919061069c565b9081526040519081900360200190206002015460ff16156101ee5760405162461bcd60e51b815260040161010790610715565b6040805160608101825283815260208101839052600181830152905160009061021890859061069c565b9081526020016040518091039020600082015181600001908051906020019061024292919061041f565b50602082810151805161025b926001850192019061041f565b50604091820151600291909101805460ff1916911515919091179055517fb36f5b777790db07d29bcfc52bdb1992326e6a4527fc6cee83b2538549e2d35b906102a59084906106c3565b60405180910390a15050565b600080826040516102c2919061069c565b9081526040519081900360200190206002015460ff169050919050565b8051602081830181018051600082529282019190930120915280548190610305906107e9565b80601f0160208091040260200160405190810160405280929190818152602001828054610331906107e9565b801561037e5780601f106103535761010080835404028352916020019161037e565b820191906000526020600020905b81548152906001019060200180831161036157829003601f168201915b505050505090806001018054610393906107e9565b80601f01602080910402602001604051908101604052809291908181526020018280546103bf906107e9565b801561040c5780601f106103e15761010080835404028352916020019161040c565b820191906000526020600020905b8154815290600101906020018083116103ef57829003601f168201915b5050506002909301549192505060ff1683565b82805461042b906107e9565b90600052602060002090601f01602090048101928261044d5760008555610493565b82601f1061046657805160ff1916838001178555610493565b82800160010185558215610493579182015b82811115610493578251825591602001919060010190610478565b5061049f9291506104a3565b5090565b5b8082111561049f57600081556001016104a4565b600082601f8301126104c8578081fd5b813567ffffffffffffffff808211156104e3576104e3610824565b604051601f8301601f19168101602001828111828210171561050757610507610824565b60405282815284830160200186101561051e578384fd5b82602086016020830137918201602001929092529392505050565b60006020828403121561054a578081fd5b813567ffffffffffffffff811115610560578182fd5b61056c848285016104b8565b949350505050565b60008060408385031215610586578081fd5b823567ffffffffffffffff8082111561059d578283fd5b6105a9868387016104b8565b935060208501359150808211156105be578283fd5b506105cb858286016104b8565b9150509250929050565b600081518084526105ed8160208601602086016107b9565b601f01601f19169290920160200192915050565b815460009081906002810460018083168061061d57607f831692505b602080841082141561063d57634e487b7160e01b87526022600452602487fd5b81801561065157600181146106625761068e565b60ff1986168952848901965061068e565b61066b8a6107ad565b885b868110156106865781548b82015290850190830161066d565b505084890196505b509498975050505050505050565b600082516106ae8184602087016107b9565b9190910192915050565b901515815260200190565b6000602082526106d660208301846105d5565b9392505050565b6000606082526106f060608301866105d5565b828103602084015261070281866105d5565b9150508215156040830152949350505050565b6020808252601c908201527f56616c696461746f7220616c7265616479207265676973746572656400000000604082015260600190565b60208082526010908201526f125b9d985b1a59081c185cdcdddbdc9960821b604082015260600190565b60208082526018908201527f56616c696461746f72206e6f7420726567697374657265640000000000000000604082015260600190565b60009081526020902090565b60005b838110156107d45781810151838201526020016107bc565b838111156107e3576000848401525b50505050565b6002810460018216806107fd57607f821691505b6020821081141561081e57634e487b7160e01b600052602260045260246000fd5b50919050565b634e487b7160e01b600052604160045260246000fdfea2646970667358221220ee3694f35665ccb7b6868488f63c6099375b1336a2ee4a5dcf99b9b10c18404664736f6c6343000800003336623836623237336666333466636531396436623830346566663561336635373437616461346561613232663164343963303165353264646237383735623462",
  "immutableReferences": {},
  "source": "// SPDX-License-Identifier: MIT\npragma solidity ^0.8.0;\n\ncontract ValidatorRegistry {\n    struct Validator {\n        string validatorId;\n        string passwordHash;\n        bool isRegistered;\n    }\n\n    mapping(string => Validator) public validators;\n    event ValidatorRegistered(string validatorId);\n    event ValidatorLoggedIn(string validatorId);\n\n    constructor() {\n        // Register the default validator (ID: 1, Password: 1)\n        string memory defaultId = \"1\";\n        string memory defaultPasswordHash = \"6b86b273ff34fce19d6b804eff5a3f5747ada4eaa22f1d49c01e52ddb7875b4b\"; // hash of \"1\"\n        \n        validators[defaultId] = Validator({\n            validatorId: defaultId,\n            passwordHash: defaultPasswordHash,\n            isRegistered: true\n        });\n\n        emit ValidatorRegistered(defaultId);\n    }\n\n    function registerValidator(string memory _validatorId, string memory _passwordHash) public {\n        require(!validators[_validatorId].isRegistered, \"Validator already registered\");\n        \n        validators[_validatorId] = Validator({\n            validatorId: _validatorId,\n            passwordHash: _passwordHash,\n            isRegistered: true\n        });\n\n        emit ValidatorRegistered(_validatorId);\n    }\n\n    function loginValidator(string memory _validatorId, string memory _passwordHash) public returns (bool) {\n        require(validators[_validatorId].isRegistered, \"Validator not registered\");\n        require(\n            keccak256(bytes(validators[_validatorId].passwordHash)) == keccak256(bytes(_passwordHash)),\n            \"Invalid password\"\n        );\n\n        emit ValidatorLoggedIn(_validatorId);\n        return true;\n    }\n\n    function isValidatorRegistered(string memory _validatorId) public view returns (bool) {\n        return validators[_validatorId].isRegistered;\n    }\n} ",
  "sourcePath": "/Users/nandakishorep/Desktop/Cursor Prjoect/certificate-contracts/contracts/ValidatorRegistry.sol",
  "compiler": {
    "name": "solc",
    "version": "0.8.0+commit.c7dfd78e.Emscripten.clang"
  },
  "schemaVersion": "3.4.16",
  "updatedAt": "2025-04-26T19:23:22.100Z",
  "networkType": "ethereum",
  "devdoc": {
    "kind": "dev",
    "methods": {},
    "version": 1
  },
  "userdoc": {
    "kind": "user",
    "methods": {},
    "version": 1
  }
}